:1016EF0044006D0000000044007100000000440041
:1016FF007900000000410004004100050044000A89
:10170F000000000044000E44CA80004400060000A0
:10171F00000044001F0000000044002300000000F0
:10172F0044001A0000000044004640051EB8440063
:10173F00343FE76C8B44000046A2800044004146D2
:10174F00A280004400160000000044006642C8005A
:10175F000044006243C8000044005A44480000445B
:10176F00005E3F8000004400524000000044004AE9
:10177F004040000044004E460AE000440056460A2E
:10178F00E000440075468CA00044003D46CB20008D
:081C40007F0A7E007D007C009C
:101C4800802490007DE0FCA3E0FDA3E0FEA3E0FF7C
:101C5800EC4D4E4F6018EF24FFFFEE34FFFEED34DD
:0F1C6800FFFDEC34FFFC90007D120F2580D4228D
:06160E0090007D120F2583
:10161400C294C292E4F5A0D294C29490007DE0FCFE
:10162400A3E0FDA3E0FEA3E0FFA3120F2590007D3D
:10163400E0FCA3E0FDA3E0FEA3E0FF7818120F1284
:1016440090007D120F2590007DA3A3A3E0FF8FA03F
:10165400D294C294A3E0FCA3E0FDA3E0FEA3E0FFC8
:1016640090007D120F2590007DE0FCA3E0FDA3E037
:10167400FEA3E0FF7810120F1290007D120F259048
:10168400007DA3A3A3E0FF8FA0D294C294A3E0FCA7
:10169400A3E0FDA3E0FEA3E0FF90007D120F2590E0
:1016A400007DE0FCA3E0FDA3E0FEA3E0FF780812C8
:1016B4000F1290007D120F2590007DA3A3A3E0FFDD
:1016C4008FA0D294C294A3E0FCA3E0FDA3E0FEA308
:1016D400E0FF90007D120F2590007DA3A3E0FEA300
:0A16E400E0FF8FA0D294C294D292CE
:0116EE0022D9
:1019050090007D120F25E47F22FEFDFC90007DE016
:10191500F8A3E0F9A3E0FAA3E0FB120DE7E4120C4B
:10192500FB90006D120F2590007DE0FCA3E0FDA368
:10193500E0FEA3E0FFE4120CFB7B997A2A79B878E4
:101945003E120ADC900071120F25900071E0FCA395
:10195500E0FDA3E0FEA3E0FFE4FBFAF9783F1209FE
:10196500EB900071120F2590006DE0FCA3E0FDA344
:10197500E0FEA3E0FFA3E0F8A3E0F9A3E0FAA3E00B
:10198500FB1209EB90006D120F2590006DE0FCA392
:10199500E0FDA3E0FEA3E0FF120D39900079020FF0
:0119A500251C
:08213500D293121C40C2932258
:101C0400900000E0FCA3E0FDA3E0FEA3E0FF120DC2
:071C140039900012120F25A8
:101C1B00900012E0FCA3E0FDA3E0FEA3E0FF12198D
:101C2B0005121C40900079E0FCA3E0FDA3E0FEA3AD
:051C3B00E0FF02160E9F
:10133600900004EFF0FCE4120D057B007A40799CE6
:101346007845120ADCE4FBFA79807843120BE590C3
:10135600000A120F2590000AE0FCA3E0FDA3E0FEC0
:10136600A3E0FF900034E0F8A3E0F9A3E0FAA3E0DD
:10137600FB120ADC90001F120F2590001FE0FCA351
:0B138600E0FDA3E0FEA3E0FF120D3924
:0613910090007D120F2503
:10139700E4900081F0E47B0AFAF9F890007DE0FC24
:1013A700A3E0FDA3E0FEA3E0FF120E72EC4D4E4F4B
:1013B700604BE47B0AFAF9F890007DE0FCA3E0FDBE
:1013C700A3E0FEA3E0FF120E72900081E0242CF54B
:1013D70082E43400F583EBF090007DE0FCA3E0FDB0
:1013E700A3E0FEA3E0FFE47B0AFAF9F8120E72907D
:1013F700007D120F25900081E004F0809890007D19
:10140700A3A3A3E0FFA3E0FE242CF582E43400F5B8
:1014170083EFF0742D2EF582E43400F583E4F09029
:091427000081E004F0E0FF7E000A
:011430002299
:0617A400900085120F25E4
:1017AA00E4900089F07F0890002CE4F0A3DFFCE4C9
:1017BA007B0AFAF9F8900085E0FCA3E0FDA3E0FEBD
:1017CA00A3E0FF120E72EC4D4E4F604FE47B0AFA13
:1017DA00F9F8900085E0FCA3E0FDA3E0FEA3E0FF9A
:1017EA00120E72EB2430FF900089E0242CF582E47B
:1017FA003400F583EFF0900085E0FCA3E0FDA3E060
:10180A00FEA3E0FFE47B0AFAF9F8120E7290008553
:10181A00120F25900089E004F08094900085A3A31C
:10182A00A3E02430FFA3E0FE242CF582E43400F583
:10183A0083EFF0EE600D242DF582E43400F583E4A5
:0C184A00F08005E490002CF0EEFF7E0022
:01185600226F
:0C211C007F017E1EEE60031E80FADFF8DB
:012128002294
:101ECD00C200EF24FD601404702120810B12211C2F
:101EDD002081053081FDD200A2002220820B12212B
:0B1EED001C2082053082FDD200A20004
:011EF80022C7
:071FE200120F257F027E00B3
:101FE900EF1FAA0670011E4A6013E4FCFDC3ED94BD
:0D1FF90058EC940250EA0DBD00010C80F080
:0120060022B7
:100003007F9A7E997D597C3F90000EE0F8A3E0F93A
:10001300A3E0FAA3E0FB120ADC900006120F25907E
:100023000006E0FCA3E0FDA3E0FEA3E0FF90004692
:10003300E0F8A3E0F9A3E0FAA3E0FB120ADC9000E6
:100043001A120F25121C047F327E00121FE9D28080
:10005300C287E490001EF090002704F0D290122192
:1000630035900027E0B4010D12152C1218577F6448
:100073007E00121FE9D284C286D281D282D283D279
:1000830091121C04121B85900028120F3140A0000E
:1000930000900028E0FCA3E0FDA3E0FEA3E0FFEC5A
:1000A3004D4E4F700302015B900012E0FCA3E0FD94
:1000B300A3E0FEA3E0FF12139190003CEFF01210B7
:1000C300EB121FE5E4FF121AFE12133690006AEFDB
:1000D300F0121239121FE57F02121AFE900005EF8B
:1000E300F0FCE4120D057B007A40799C7845120AF6
:1000F300DCE4FBFA79807843120BE590000E120FD3
:100103002590000EE0FCA3E0FDA3E0FEA3E0FF903A
:100113000046E0F8A3E0F9A3E0FAA3E0FB120ADC4F
:10012300900023120F2590002312138390006BEF8E
:10013300F0121431121FE5900028E0FCA3E0FDA3A8
:10014300E0FEA3E0FFE4FBFA7980783F1209E79031
:100153000028120F25020094900016E0FCA3E0FD96
:10016300A3E0FEA3E0FFEC4D4E4F600302042430F6
:10017300870302032B7F05FE121FE9308703020367
:100183002B121F20121FE57F9A7E997D597C3F9089
:10019300000EE0F8A3E0F9A3E0FAA3E0FB120ADC07
:1001A300900006120F25900006E0FCA3E0FDA3E0FB
:1001B300FEA3E0FF900046E0F8A3E0F9A3E0FAA372
:1001C300E0FB120ADC90001A120F25E4FFFE7D7A91
:1001D3007C4490001FE0F8A3E0F9A3E0FAA3E0FB5E
:1001E300120C82900012E0FCA3E0FDA3E0FEA3E06A
:1001F3005005C3941E8003C39403FFEE9400FEEDE9
:100203009400FDEC9400FC900012120F2590001254
:10021300E0FCA3E0FDA3E0FEA3E0FFE4120CFB90EF
:100223000075E0F8A3E0F9A3E0FAA3E0FB120C8267
:100233006019401790003DE0FCA3E0FDA3E0FEA39E
:10024300E0FF120D39900012120F25121C1B9000B3
:1002530012E0FCA3E0FDA3E0FEA3E0FF12139190E4
:10026300003CEFF01210EB121FE5E4FF121AFE122E
:10027300133690006AEFF0121239121FE57F021253
:100283001AFE900005EFF0FCE4120D057B007A40A6
:10029300799C7845120ADCE4FBFA79807843120BE7
:1002A300E590000E120F2590000EE0FCA3E0FDA3E5
:1002B300E0FEA3E0FF900046E0F8A3E0F9A3E0FA34
:1002C300A3E0FB120ADC900023120F2590002312F7
:1002D300138390006BEFF0121431121FE590001A94
:1002E300E0FCA3E0FDA3E0FEA3E0FF90001FE0F825
:1002F300A3E0F9A3E0FAA3E0FB120C82600250032F
:1003030002015B900012E0FCA3E0FDA3E0FEA3E08A
:10031300FFE4120CFB900041120F25900016120F00
:10032300313F80000002042420870302015B7F0A1F
:100333007E00121FE920870302015B900012E0FC9C
:10034300A3E0FDA3E0FEA3E0FF12139190003CEFB6
:10035300F01210EB121FE5121F6E900016120F31F0
:1003630000000000121FE5E4FF121AFE900004EFE4
:10037300F0FCE4120D057B007A40799C7845120A63
:10038300DCE4FBFA79807843120BE590000A120F44
:100393002590000AE0FCA3E0FDA3E0FEA3E0FF90AC
:1003A3000034E0F8A3E0F9A3E0FAA3E0FB120ADCCF
:1003B30090001F121FE27F02121AFE900005EFF059
:1003C300FCE4120D057B007A40799C7845120ADC27
:1003D300E4FBFA79807843120BE590000E120F25A7
:1003E30090000EE0FCA3E0FDA3E0FEA3E0FF90007D
:1003F30046E0F8A3E0F9A3E0FAA3E0FB120ADC90DD
:100403000023121FE212138090006AEFF0121239D8
:1004130090002312138390006BEFF012143102014A
:100423005B900016E0FCA3E0FDA3E0FEA3E0FFEC7D
:100433004D4E4F7003020084121B8530870302095F
:10044300C9121EF9900012E0FCA3E0FDA3E0FEA395
:10045300E0FF12139190003CEFF0121FE5E0FF1252
:1004630010EB900038120F3140A00000900038E0EC
:10047300FCA3E0FDA3E0FEA3E0FFEC4D4E4F7003B1
:1004830002059DE4FF121AFE900004EFF0FCE41253
:100493000D057B007A40799C7845120ADCE4FBFA6F
:1004A30079807843120BE590000A120F2590000A19
:1004B300E0FCA3E0FDA3E0FEA3E0FF900034E0F83E
:1004C300A3E0F9A3E0FAA3E0FB120ADC90001F12F9
:1004D3000F2590004EE0FCA3E0FDA3E0FEA3E0FFA8
:1004E30090001FE0F8A3E0F9A3E0FAA3E0FB1209F0
:1004F300EB90004E120F257F017E00121FE97F0251
:10050300121AFE900005EFF0FCE4120D057B007A51
:1005130040799C7845120ADCE4FBFA79807843122F
:100523000BE590000E120F2590000EE0FCA3E0FDFA
:10053300A3E0FEA3E0FF900046E0F8A3E0F9A3E008
:10054300FAA3E0FB120ADC900023120F2590005659
:10055300E0FCA3E0FDA3E0FEA3E0FF900023E0F8AE
:10056300A3E0F9A3E0FAA3E0FB1209EB9000561213
:100573000F257F017E00121FE9900038E0FCA3E005
:10058300FDA3E0FEA3E0FFE4FBFA7980783F1209C4
:10059300E7900038120F2502046F900038120F31D4
:1005A30040A0000090004EE0FCA3E0FDA3E0FEA30A
:1005B300E0FFE4FBFA79C07840120BE590004E129D
:1005C3000F25900056E0FCA3E0FDA3E0FEA3E0FFAF
:1005D300E4FBFA79C07840120BE5900056120F2520
:1005E30090004E12138390006AEFF01212399000BC
:1005F3005612138390006BEFF0121431900066E0F3
:10060300FCA3E0FDA3E0FEA3E0FF900056E0F8A307
:10061300E0F9A3E0FAA3E0FB1209EB90004EE0F847
:10062300A3E0F9A3E0FAA3E0FB120C826061405F50
:10063300900062E0FCA3E0FDA3E0FEA3E0FF9000D6
:1006430056E0F8A3E0F9A3E0FAA3E0FB1209EB906C
:10065300004EE0F8A3E0F9A3E0FAA3E0FB120C825A
:10066300502D900012E0FCA3E0FDA3E0FEA3E0FF09
:10067300E4120CFB90005EE0F8A3E0F9A3E0FAA318
:10068300E0FB1209EB121C127F057E00121FE9909A
:100693000062E0FCA3E0FDA3E0FEA3E0FF900056B0
:1006A300E0F8A3E0F9A3E0FAA3E0FB1209EB900062
:1006B3004EE0F8A3E0F9A3E0FAA3E0FB120C82609A
:1006C30061405F90005AE0FCA3E0FDA3E0FEA3E0DD
:1006D300FF900056E0F8A3E0F9A3E0FAA3E0FB12D1
:1006E30009EB90004EE0F8A3E0F9A3E0FAA3E0FBE6
:1006F300120C82502D900012E0FCA3E0FDA3E0FE5B
:10070300A3E0FFE4120CFB900052E0F8A3E0F9A38E
:10071300E0FAA3E0FB1209EB121C127F057E001224
:100723001FE990005AE0FCA3E0FDA3E0FEA3E0FF75
:10073300900056E0F8A3E0F9A3E0FAA3E0FB120966
:10074300EB90004EE0F8A3E0F9A3E0FAA3E0FB127C
:100753000C82602F402D900012E0FCA3E0FDA3E08B
:10076300FEA3E0FFE4120CFB90004AE0F8A3E0F9DB
:10077300A3E0FAA3E0FB1209EB121C127F057E0033
:10078300121FE9900066E0F8A3E0F9A3E0FAA3E002
:10079300FB900056E0FCA3E0FDA3E0FEA3E0FF1204
:1007A30009E790004EE0F8A3E0F9A3E0FAA3E0FB29
:1007B300120C825061900062E0F8A3E0F9A3E0FA22
:1007C300A3E0FB900056E0FCA3E0FDA3E0FEA3E062
:1007D300FF1209E790004EE0F8A3E0F9A3E0FAA3C3
:1007E300E0FB120C82602F402D900012E0FCA3E08E
:1007F300FDA3E0FEA3E0FFE4120CFB90005EE0F833
:10080300A3E0F9A3E0FAA3E0FB1209E7121C127FAD
:10081300057E00121FE9900062E0F8A3E0F9A3E06F
:10082300FAA3E0FB900056E0FCA3E0FDA3E0FEA3E7
:10083300E0FF1209E790004EE0F8A3E0F9A3E0FA25
:10084300A3E0FB120C82506190005AE0F8A3E0F998
:10085300A3E0FAA3E0FB900056E0FCA3E0FDA3E0D5
:10086300FEA3E0FF1209E790004EE0F8A3E0F9A32E
:10087300E0FAA3E0FB120C82602F402D900012E0FF
:10088300FCA3E0FDA3E0FEA3E0FFE4120CFB900059
:1008930052E0F8A3E0F9A3E0FAA3E0FB1209E712A0
:1008A3001C127F057E00121FE990005AE0F8A3E0B6
:1008B300F9A3E0FAA3E0FB900056E0FCA3E0FDA35C
:1008C300E0FEA3E0FF1209E790004EE0F8A3E0F991
:1008D300A3E0FAA3E0FB120C82502D900012E0FC7F
:1008E300A3E0FDA3E0FEA3E0FFE4120CFB90004AAB
:1008F300E0F8A3E0F9A3E0FAA3E0FB1209E7121C76
:10090300127F057E00121FE97F057E00121FE9306A
:100913008603121E43208603121E157F057E0012D6
:100923001FE9E4FFFE7D487C4290004EE0F8A3E01F
:10093300F9A3E0FAA3E0FB120C825008121E71C265
:10094300903090FD900012E0FCA3E0FDA3E0FEA335
:10095300E0FFE4120CFB900075E0F8A3E0F9A3E0DC
:10096300FAA3E0FB120C8260124010900041121CAB
:1009730007900016120F3100000000900012E0FCF7
:10098300A3E0FDA3E0FEA3E0FFE4120CFB90003D17
:10099300E0F8A3E0F9A3E0FAA3E0FB120C82501005
:1009A300900041121C07900016120F310000000046
:1009B300208703020447121F6E900016120F3100A6
:1009C3000000002087FD208703020424121F6E907D
:1009D3000016120F310000000020870302008480FC
:0109E300F81B
:051AFE0090007DEFF0F7
:101B03001220A57F90121BC72001037F00229000A3
:101B13007DE04440FF121BC72001037F00221220F7
:101B2300A57F91121BC72001037F0022122007907B
:0F1B3300007EEFF012210B1220FA90007EE0FFEF
:011B42002280
:1020A500D28400D2850000000000C2840000000038
:0620B50000C285000022BC
:1020FA00C28400D2850000000000D28400000000E3
:01210A0022B2
:101BC700E4FEEFA806088002C333D8FC30E704D24E
:101BD700848002C28400D2850000000000C2850E06
:101BE700EEB408DE0000D2840000D2850000003089
:0C1BF7008404C2018002D201C2850000FB
:011C030022BE
:10200700E4FFD284FE00C2850000000000D28500F4
:1020170000EF25E0FF3084010F00000EEEB408E565
:04202700C28500006E
:01202B002292
:10210B00D284000000D2850000000000C2850000D0
:01211B0022A1
:04179F00410093155D
:1020BB00758920758DFD758BFDE4F587759850D26C
:0620CB008EC299C29822AA
:101A320090008DEDF090008AEBF0A3EAF0A3E9F0BC
:101A4200900045E090008DF01220D1900092EFF0CE
:101A5200FEC299F5993099FDC299E4FF900092E097
:101A6200FDEFC39D502290008AE0FBA3E0FAA3E0C1
:101A7200F98F82758300120DBA24D0FD6EFE8D9906
:101A82003099FDC2990F80D490008DE0F59930997C
:0C1A9200FDC299AF068F993099FDC299F2
:011A9E002225
:101A9F0090008EEBF0A3EAF0A3E9F0A3EDF0122093
:101AAF00BBC2997599063099FDC299900093E06079
:101ABF000FC2983098FD900093E599F0C29880EB93
:101ACF0090009374F0F0900093E0640F602090000A
:101ADF008EE0FBA3E0FAA3E0F9A3E0FD121A32C2F5
:0F1AEF00983098FD900093E599F0C29880D82226
:041FBC007F057E001F
:0A1FC000EF1FAC0670011E4C601705
:101FCA00E4900083F0900083E0C394FA50E80000A4
:071FDA000000E004F080EEBE
:011FE10022DD
:1020E600C295D296D29700000000E5B0339202C2A4
:0320F60097A202AC
:0120F90022C4
:102073001220E6C295C296C29700008FB0000000FE
:0A20830000D29700000000C297226F
:10205000EF70047F808016EFB401047F90800EEF54
:10206000B402047F888006EFB403027F98EF2DFF4F
:03207000022073D8
:10208D001220E6D295C296C2978FB000000000D202
:08209D009700000000C2972229
:10202C007F34122073121FBC7F30122073121FBC1E
:10203C007F0C122073121FBC7F011220737F057E50
:04204C0000021FC0AF
:100F7B00B4F3C1ACC0EDB9A4B4F3D1A700CFD6B4D0
:100F8B00FAD6C6D4ECBCBCCAF500D1D0BEBFCBF9E7
:100F9B0020202020202000C6B5C2CA3A00303132B2
:100FAB00333435363738392000C9E8D6C3B5E7C1F5
:100FBB00F73A00CAB5BCCAB5E7C1F73A00C9A8C62B
:100FCB00B5D6D0C7EBC9D4BAF300B9A4D7F7D6D0EE
:100FDB00202020202020202000CEB4B9A4D7F72039
:100FEB002020202020202000C6B5C2CAC9E8B6A800
:100FFB00B3C9B9A60020202020202000CAD6B6AF46
:10100B00C4A3CABD2020202000B2BDBDF83A202BBE
:10101B00203120487A00B2BDBDF83A202D20312076
:10102B00487A00B2BDBDF83A202B313020487A0007
:10103B00B2BDBDF83A202D313020487A00B2BDBD8B
:10104B00F83A202B313030487A00B2BDBDF83A2047
:10105B002D313030487A00303100303200303300DF
:10106B00203000203100B5E7C1F7B5CD00B3ACC6D9
:10107B00B5C2CA00537465703A656D7074792020DF
:10108B0020202020005363616E2046726571202062
:10109B002020202020002020202020202020002085
:1010AB002020202020202020002020202020202055
:1010BB0020202020202020202000537465703A002F
:1010CB002000487A002E00302E00300030303030B7
:1010DB003030004B004D004120006D4120003A00A4
:10152C00E490007DF0A3F0A3F0A3F0A3F0A3F012DD
:10153C00202C7F0A7E00121FC07D01E4FF12205078
:10154C0090007DE0FEA3E0FF640C4E6027747B2FBF
:10155C00F582740F3EF583E493FF12208D90007E8C
:10156C00E004F0700690007DE004F07F057E001230
:10157C001FC080CC7F0A7E00121FC07D017F01122C
:10158C00205090007FE0FEA3E0FF640C4E602774B7
:10159C00882FF582740F3EF583E493FF12208D9013
:1015AC000080E004F0700690007FE004F07F057E80
:1015BC0000121FC080CC7F0A7E00121FC07D027FEC
:1015CC0002122050900081E0FEA3E0FF64064E6002
:1015DC002774952FF582740F3EF583E493FF122048
:1015EC008D900082E004F07006900081E004F07FA2
:1015FC00057E00121FC080CC1221297F0A7E0002BA
:02160C001FC0FD
:10185700E490007EF0A3F0FD7F0212205090007EFE
:10186700E0FEA3E0FF64064E602074A22FF58274A9
:101877000F3EF583E493FF12208D90007FE004F084
:0A18870070DB90007EE004F080D3D7
:10189100E490007EF0A3F0FDFF12205090007EE066
:1018A100FEA3E0FF640A4E602074B42FF582740F2A
:1018B1003EF583E493FF12208D90007FE004F070E9
:0918C100DB90007EE004F080D30E
:1018CA00E490007EF0A3F0FD7F0112205090007E8C
:1018DA00E0FEA3E0FF640A4E602074BE2FF5827416
:1018EA000F3EF583E493FF12208D90007FE004F011
:0A18FA0070DB90007EE004F080D364
:0119040022C0
:101B4300E4900094F0A3F0FD7F03122050E4900092
:101B530094F0A3F0900094E0FEA3E0FF64104E60C5
:101B63002074B42FF58274103EF583E493FF1220A2
:101B73008D900095E004F070DB900094E004F08019
:011B8300D38E
:011B8400223E
:101B8500E490007DF0A3F0FD7F03122050E4900067
:101B95007DF0A3F090007DE0FEA3E0FF64104E60B1
:101BA5002074B42FF58274103EF583E493FF122060
:101BB5008D90007EE004F070DB90007DE004F08005
:011BC500D34C
:011BC60022FC
:0C2129007F011220737F047E00021FC0A3
:101C7700E4FD7F03122050E4900096F0900096E078
:101C8700FF640C6018EF90101493FF12208D9000E2
:0D1C970096E004F07F017E00121FC080DF88
:011CA400221D
:101CA500E4FD7F03122050E4900097F0900097E048
:101CB500FF640C6018EF90102193FF12208D9000A7
:0D1CC50097E004F07F017E00121FC080DF59
:011CD20022EF
:101CD300E4FD7F03122050E4900098F0900098E018
:101CE300FF640C6018EF90102E93FF12208D90006C
:0D1CF30098E004F07F017E00121FC080DF2A
:011D000022C0
:101D0100E4FD7F03122050E4900099F0900099E0E7
:101D1100FF640C6018EF90103B93FF12208D900030
:0D1D210099E004F07F017E00121FC080DFFA
:011D2E002292
:101D2F00E4FD7F03122050E490009AF090009AE0B7
:101D3F00FF640C6018EF90104893FF12208D9000F5
:0D1D4F009AE004F07F017E00121FC080DFCB
:011D5C002264
:101D5D00E4FD7F03122050E490009BF090009BE087
:101D6D00FF640C6018EF90105593FF12208D9000BA
:0D1D7D009BE004F07F017E00121FC080DF9C
:011D8A002236
:101D8B007D067F03122050E490009CF090009CE0B5
:101D9B00FF64026018EF90106293FF12208D900089
:0D1DAB009CE004F07F017E00121FC080DF6D
:011DB8002208
:101DB9007D067F03122050E490009DF090009DE085
:101DC900FF64026018EF90106593FF12208D900058
:0D1DD9009DE004F07F017E00121FC080DF3E
:011DE60022DA
:101DE7007D067F03122050E490009EF090009EE055
:101DF700FF64026018EF90106893FF12208D900027
:0D1E07009EE004F07F017E00121FC080DF0E
:011E140022AB
:101E15007D077F03122050E490007DF090007DE067
:101E2500FF64026018EF90106B93FF12208D9000F5
:0D1E35007DE004F07F017E00121FC080DF01
:011E4200227D
:101E43007D077F03122050E490007DF090007DE039
:101E5300FF64026018EF90106E93FF12208D9000C4
:0D1E63007DE004F07F017E00121FC080DFD3
:011E7000224F
:101E7100E4FD7F03122050E490007DF090007DE0AE
:101E8100FF64066018EF90107193FF12208D90008F
:0D1E91007DE004F07F017E00121FC080DFA5
:011E9E002221
:101E9F007D047F03122050E490009FF090009FE09C
:101EAF00FF64066018EF90107893FF12208D90005A
:0D1EBF009FE004F07F017E00121FC080DF55
:011ECC0022F3
:101EF900E4FD7F03122050E490007DF090007DE026
:101F0900FF640C6011EF900FD593FF12208D9000A4
:061F19007DE004F080E60B
:011F1F00229F
:101F2000E4FD7F03122050E490007DF090007DE0FE
:101F3000FF640C6011EF900FC893FF12208D90008A
:061F40007DE004F080E6E4
:011F46002278
:101F4700E4FD7F03122050E49000A0F09000A0E091
:101F5700FF640C6011EF900FF393FF12208D900038
:061F6700A0E004F080E69A
:011F6D002251
:101F6E00E4FD7F03122050E490007DF090007DE0B0
:101F7E00FF640C6011EF900FE493FF12208D900020
:061F8E007DE004F080E696
:011F9400222A
:101F9500E4FD7F03122050E49000A1F09000A1E041
:101FA500FF640C6011EF90100793FF12208D9000D5
:061FB500A1E004F080E64B
:011FBB002203
:1012390090007DEFF012185790007DE0D394025092
:10124900527D057F011220509010CBE493FF1220AC
:101259008D9010CBE493FF12208D90007DE0601AF1
:10126900242BF582E43400F583E0900FA893FF1254
:10127900208D90007DE014F080E07D077F01122031
:10128900509010E5E493FF12208D9010E6E493FF4F
:1012990012208D90007DE0640370497D057F011265
:1012A90020509010CBE493FF12208D90007DE060D8
:1012B9001A242BF582E43400F583E0900FA893FFFC
:1012C90012208D90007DE014F080E07D077F0112EF
:1012D90020509010E5E493FF12208D9010E6E493DE
:1012E900FF12208D90007DE0640470407D057F0130
:1012F90012205090007DE0601A242BF582E434001E
:10130900F583E0900FA893FF12208D90007DE014E3
:10131900F080E07D077F011220509010E5E493FFF3
:0D13290012208D9010E6E493FF12208D221B
:1014310090007DEFF012185790007DE0D394025098
:10144100527D05E4FF1220509010CBE493FF12204F
:101451008D9010CBE493FF12208D90007DE0601AF7
:10146100242BF582E43400F583E0900FA893FF125A
:10147100208D90007DE014F080E07D07E4FF1220D4
:10148100509010E5E493FF12208D9010E6E493FF55
:1014910012208D90007DE0640370487D05FF1220CD
:1014A100509010CBE493FF12208D90007DE0601AE4
:1014B100242BF582E43400F583E0900FA893FF120A
:1014C100208D90007DE014F080E07D07E4FF122084
:1014D100509010E5E493FF12208D9010E6E493FF05
:1014E10012208D90007DE06404703F7D05FF122085
:1014F1005090007DE0601A242BF582E43400F583DE
:10150100E0900FA893FF12208D90007DE014F080F1
:10151100E07D07E4FF1220509010E5E493FF1220D4
:0B1521008D9010E6E493FF12208D2255
:1010EB0090007DEFF012185790007DE0D3940250E2
:1010FB00527D057F021220509010CBE493FF1220FB
:10110B008D9010CBE493FF12208D90007DE0601A40
:10111B00242BF582E43400F583E0900FA893FF12A3
:10112B00208D90007DE014F080E07D077F0212207F
:10113B00509010CDE493FF12208D9010CEE493FFCE
:10114B0012208D90007DE0640370497D057F0212B3
:10115B0020509010CBE493FF12208D90007DE06027
:10116B001A242BF582E43400F583E0900FA893FF4B
:10117B0012208D90007DE014F080E07D077F02123D
:10118B0020509010CDE493FF12208D9010CEE4935D
:10119B00FF12208D90007DE0640470407D057F027E
:1011AB0012205090007DE0601A242BF582E434006D
:1011BB00F583E0900FA893FF12208D90007DE01433
:1011CB00F080E07D077F021220509010CDE493FF5A
:1011DB0012208D9010CEE493FF12208D90007DE0B5
:1011EB00640570497D047F021220509010CBE4936C
:1011FB00FF12208D90007DE0601A242BF582E434E1
:10120B0000F583E0900FA893FF12208D90007DE0F6
:10121B0014F080E07D077F021220509010CDE493F4
:0E122B00FF12208D9010CEE493FF12208D2232
:1009E400020DA5E86480F8E933E83360110460F08F
:1009F400ED33EC337009E8FCE9FDEAFEEBFF220479
:100A040060DED3EB9FEA9EE99DE8C2E78CF0C2F773
:100A140095F0400CE8CCF8E9CDF9EACEFAEBCFFB3F
:100A2400120D7085D0F05804700320D5B3E804701B
:100A3400075002B2D5020DAF92D5EC0460F7E4CCB6
:100A4400C0E0C398F8603B94186008400DD0E0FB08
:100A5400020D87E4FBFAC9FC8028E830E406E4C907
:100A6400FBE4CAFCE830E305E4C9CACBFCE854075C
:100A74006010F8C3E913F9EA13FAEB13FBEC13FC67
:100A8400D8F130F52FC3E49CFCEF9BFFEE9AFEED0A
:100A940099FDD0E0FBEF4E4D4C701222DB03020DAA
:100AA400ACEC2CFCEF33FFEE33FEED33FDED30E721
:100AB400EB020D87EF2BFFEE3AFEED39FDD0E0FBA4
:100AC40050130BBB0003020DAFED13FDEE13FEEF4D
:080AD40013FFEC13FC020D8777
:100ADC00EC4D6011E8497017ED33EC3304600DE414
:100AEC00FCFFFEFD22E933E8330470F8020DA51279
:100AFC000D7058046009E4CC24815006285009027A
:100B0C000DAF284003020DACC0E0EB4A7044B98035
:100B1C0006D0E0FB020D9BEF4E701CBD8008EBFF76
:100B2C00EAFEE9FD80EBE98DF0A4FEE5F0020BC5D1
:100B3C00E9CDF9EAFEEBFFEF89F0A4FCE5F0CE89F4
:100B4C00F0A42EFFE435F0CD89F0A42DFEE435F0B1
:100B5C008067EF4E7005BD80D780C3EF8BF0A4ACDF
:100B6C00F0EE8BF0A42CFCE435F0F8EF8AF0A42C1A
:100B7C00E5F038FCE433CB8DF0A42CFCE5F03BF82D
:100B8C00EE8AF0A42CFCE5F038F8E433CF89F0A41D
:100B9C002CFCE5F038CF3400CE89F0A42FFFE5F023
:100BAC003EFEE433C98DF0A42EFEE5F039CD8AF07B
:100BBC00A42FFFE5F03EFEE43DFD33D0E0FB5007F3
:100BCC000BBB000F020DAFEC2CFCEF33FFEE33FE32
:060BDC00ED33FD020D8760
:100BE200020DAFEC5D046005E859047003020DA527
:100BF200120D70580460F6EC4860F2EC7004FDFED1
:100C0200FF22C860DB2481C85009C39860025006E5
:100C1200020DAC9850CAF582E9294B4A7005AB82A5
:100C2200020D9B75F0007C1A7880C3EF9BEE9AED63
:100C320099400DC3EF9BFFEE9AFEED99FDE842F05D
:100C4200DC23ACF0D0E0FFD0E0FED0E0FDAB8220B0
:100C5200E7101BEB60BAEC2CFCEF33FFEE33FEED3A
:100C620033FD020D87E803F830E705C0F075F000A8
:100C7200EF2FFFEE33FEED33FD40B830E7C280AA1E
:100C820074F8CC6480CCC86480C8F58204604FC319
:100C9200EB9FF5F0EA9E42F0E99D42F0E89C45F0B8
:100CA200603C501DE5825FFFE582D313CB5BCBF442
:100CB2002B5582FB50280ABA002409B9002008806B
:100CC2001DE5825BFBE582D313CF5FCFF4C3132F05
:100CD2005582FF50090EBE00050DBD00010CC3EB8D
:100CE2009FF5F0EA9E42F0E99D42F0E89C45F060F3
:090CF20007CC4820E701B3EC2215
:100CFB0075F020800E75F010800575F0087D007E74
:100D0B00007F003392D530D503120F04EC33401023
:100D1B00EF33FFEE33FEED33FDEC33FCD5F0ED227C
:0E0D2B00E5F0247EA2D513CC92E7CDCEFF22B8
:100D3900EDD2E7CD33EC3392D524814006E4FFFEB2
:100D4900FDFC22FCE4CFCECDCC24E0501174FF8011
:100D5900EDC3CC13CCCD13CDCE13CECF13CF0470AE
:070D6900F030D5DE020F049B
:100D7000E9D2E7C933E833F892D5EDD2E7CD33ECC9
:070D800033FC5002B2D52242
:100D8700EC30E7100FBF000C0EBE00080DBD0004CD
:100D97000BEB6014A2D5EB13FCED92E7FD2274FF79
:100DA700FCFDFEFF22E480F8A2D574FF13FC7D80D2
:030DB700E480EFE6
:030000000219A63C
:0C19A600787FE4F6D8FD7581200219ED71
:100DBA00BB010CE58229F582E5833AF583E02250EE
:100DCA0006E92582F8E622BBFE06E92582F8E22238
:0D0DDA00E58229F582E5833AF583E4932252
:100DE700E88FF0A4CC8BF0A42CFCE98EF0A42CFCAB
:100DF7008AF0EDA42CFCEA8EF0A4CDA8F08BF0A429
:100E07002DCC3825F0FDE98FF0A42CCD35F0FCEB87
:100E17008EF0A4FEA9F0EB8FF0A4CFC5F02ECD394C
:0F0E2700FEE43CFCEAA42DCE35F0FDE43CFC22B9
:100E360075F008758200EF2FFFEE33FECD33CDCC73
:100E460033CCC58233C5829BED9AEC99E5829840F6
:100E56000CF582EE9BFEED9AFDEC99FC0FD5F0D6D3
:100E6600E4CEFBE4CDFAE4CCF9A88222B800C1B9FD
:100E76000059BA002DEC8BF084CFCECDFCE5F0CB3B
:100E8600F97818EF2FFFEE33FEED33FDEC33FCEB74
:100E960033FB10D703994004EB99FB0FD8E5E4F92F
:100EA600FA227818EF2FFFEE33FEED33FDEC33FC1C
:100EB600C933C910D7059BE99A4007EC9BFCE99A10
:100EC600F90FD8E0E4C9FAE4CCFB2275F010EF2F55
:100ED600FFEE33FEED33FDCC33CCC833C810D70755
:100EE6009BEC9AE899400AED9BFDEC9AFCE899F890
:0E0EF6000FD5F0DAE4CDFBE4CCFAE4C8F92223
:0E0F0400C3E49FFFE49EFEE49DFDE49CFC22FE
:100F1200E8600FECC313FCED13FDEE13FEEF13FFBD
:030F2200D8F122E1
:0C0F2500ECF0A3EDF0A3EEF0A3EFF0223F
:100F3100A8828583F0D083D082120F48120F481205
:100F41000F48120F48E473E493A3C583C5F0C5832A
:100F5100C8C582C8F0A3C583C5F0C583C8C582C80A
:010F6100226D
:1020D100E4FFFE120F62600C0FEF70010E09E97050
:0520E100F20A80EF226D
:1019B200020003E493A3F8E493A34003F68001F248
:1019C20008DFF48029E493A3F85407240CC8C33336
:1019D200C4540F4420C8834004F456800146F6DF05
:1019E200E4800B01020408102040809016EFE47E90
:1019F200019360BCA3FF543F30E509541FFEE493FA
:101A0200A360010ECF54C025E060A840B8E493A3C0
:101A1200FAE493A3F8E493A3C8C582C8CAC583CAEB
:101A2200F0A3C8C582C8CAC583CADFE9DEE780BEA3
:0117A3000045
:100F6200BB010689828A83E0225002E722BBFE028D
:090F7200E32289828A83E49322C0
:00000001FF
